:100000000FC029C027C026C025C024C023C022C0DD
:1000100021C020C008C21EC01DC01CC01BC03500AE
:1000200011241FBECFE5D2E0DEBFCDBF10E0A0E6B9
:10003000B0E001C01D92AC38B107E1F710E0C0E2BA
:10004000D0E003C02297FE01A8D3CE31D107D1F76B
:10005000D8D1A7C3D5CF1F920F920FB60F921124FC
:100060000F900FBE0F901F901895EF92FF920F9375
:100070001F9380E690E062E041E021E039E1E32E69
:10008000F12C012D112D0FD31F910F91FF90EF90A7
:10009000089581E060E014D280E060E011D283E056
:1000A00060E00ED284E060E00BD281E060E0EED14F
:1000B00080E060E0EBD183E060E0E8D184E060E0E4
:1000C000E5D1089581E061E0E1D180E061E0DED139
:1000D00083E061E0DBD184E061E0D8D10895AF92A4
:1000E000BF92CF92DF92EF92FF920F931F93C0D1F6
:1000F0005B016C01609377007093780080937900C6
:1001000090937A00E091730080917B0090917C0045
:10011000A0917D00B0917E0086017501E81AF90A70
:100120000A0B1B0B8E2F63E02AD32DE730E002C0B1
:10013000220F331F9A95E2F740E050E0E216F306F3
:100140000407150708F4C4C0A0927B00B0927C009D
:10015000C0927D00D0927E008E2F11D38230B9F1F3
:10016000833030F4882371F0813009F0A8C01AC0C0
:10017000843009F462C0843008F446C0853009F048
:100180009EC079C0809172008130D1F0813030F012
:10019000823031F0833009F092C06AC081E060C0E3
:1001A00080E027C080917200813051F0813030F0C2
:1001B000823059F0833009F082C051C081E01EC006
:1001C00081E060E07DD180E078C080E052C0809125
:1001D0007200813069F0813030F0823071F083300C
:1001E00009F06DC00FC081E061E06AD180E059C0C4
:1001F00081E060E065D183E060C084E061E060D1CF
:1002000083E04FC080E02CC08091720090E09C01A0
:100210002170307080FF05C02130310509F04FC0DA
:1002200006C081E061E04CD180E061E041C081E046
:1002300060E046D180E060E02FC08091720090E0E5
:100240009C012170307080FF04C021303105B9F568
:1002500009C081E061E034D180E060E031D183E029
:1002600061E01DC081E060E02BD180E061E028D139
:1002700083E060E020C08091720090E09C012170DA
:10028000307080FF04C021303105C9F40CC081E01A
:1002900061E016D180E061E013D183E060E010D12D
:1002A00084E060E00BC081E060E00AD180E060E0C3
:1002B00007D183E061E004D184E061E001D1809165
:1002C00072008F5F80937200843010F01092720081
:1002D0001F910F91FF90EF90DF90CF90BF90AF9064
:1002E00008958BB780648BBF85B78C7F85BF479A95
:1002F000379885B7877E806185BF85B7806285BF67
:10030000F89485B7846880937400982F9B7F9093AE
:10031000750085BF95BF78948895F8941BBE85B706
:100320008F7D85BF7894CEDE80E690E060D180E658
:1003300090E0FFD08823C1F39BD060937F0070933F
:1003400080008093810090938200089580E690E081
:100350004ED180E690E0EDD0882349F08091730083
:100360008F5F80937300823110F01092730080E6EB
:1003700090E048EE53E060E070E0E5D0882359F06B
:1003800088DE03C080E690E032D180E690E0D1D0F4
:100390008823C1F31EC08091770090917800A091CE
:1003A0007900B0917A0020917F00309180004091D7
:1003B000810050918200821B930BA40BB50B805ED1
:1003C0009349A440B04030F080917600882311F02A
:1003D00060DE87DF84DEBACF75DE80E690E007D18D
:1003E00010927600882339F481E08093760003C070
:1003F00080E690E0FCD080E690E086D08823C1F7CC
:10040000089505D0E9DFA2DF80E090E008958AB585
:1004100082608ABD8CE789BD89B7806189BF789485
:1004200082E083BF08951F920F920FB60F9211249E
:100430008F939F93AF93BF9380918300909184009B
:10044000A0918500B09186000196A11DB11D8093F9
:10045000830090938400A0938500B0938600BF91A1
:10046000AF919F918F910F900FBE0F901F90189595
:100470008FB7F894209183003091840040918500DB
:10048000509186008FBFB901CA010895382F6623A5
:1004900059F027B381E090E002C0880F991F3A9588
:1004A000E2F7282B27BB089527B381E090E002C034
:1004B000880F991F3A95E2F78095822387BB0895AC
:1004C000382F662359F028B381E090E002C0880FEE
:1004D000991F3A95E2F7282B28BB089528B381E0AD
:1004E00090E002C0880F991F3A95E2F78095822329
:1004F00088BB089526B330E002C0359527958A95CC
:10050000E2F7822F81700895FC018381811181E0DF
:10051000089520E0FC018381882309F421E0822FE3
:100520000895FC018381882319F08581811181E080
:100530000895FC018381882311F080E0089585816E
:10054000811181E00895EF92FF920F931F93FC01B8
:100550007A018B018381813011F060E015C060E089
:1005600086819781A085B18522853385448555850F
:10057000821B930BA40BB50B8E159F05A007B1072B
:1005800008F461E081E06827862F1F910F91FF90AA
:10059000EF900895EF92FF920F931F93FC017A0161
:1005A0008B018381882311F060E015C060E08681B3
:1005B0009781A085B1852285338544855585821B29
:1005C000930BA40BB50B8E159F05A007B10708F47C
:1005D00061E081E06827862F1F910F91FF90EF90D7
:1005E0000895FC0162857385848595850895EF9251
:1005F000FF920F931F93CF93DF93EC0139DF60934A
:1006000088007093890080938A0090938B00888182
:1006100071DF982F809387008A81882339F01092A8
:100620008700992319F481E080938700E090880087
:10063000F090890000918A0010918B008A859B853B
:10064000AC85BD85A8019701281B390B4A0B5B0BB4
:100650008E859F85A889B9896B81281739074A0734
:100660005B0738F4EE82FF82088719871D82862F88
:1006700013C06C83809187008B83EE82FF82088792
:100680001987861739F0EA86FB860C871D8781E07B
:100690008D8301C01D828B81DF91CF911F910F91BE
:1006A000FF90EF900895EF92FF920F931F93CF93D7
:1006B000DF93EC01862F688349832A83EE86FF86C9
:1006C000088B198B60E0E2DE8981882319F088812C
:1006D00061E0F6DE88810EDF982F8B838A81882384
:1006E00029F01B82992311F481E08B83C1DE6E8394
:1006F0007F83888799872B812C831D826A877B87DC
:100700008C879D87DF91CF911F910F91FF90EF9084
:100710000895EF92FF920F931F93CF93DF93EC0115
:10072000862F688349832A83EE86FF86088B198B80
:1007300060E0ACDE8981882319F0888161E0C0DE49
:100740008881D8DE982F8B838A81882329F01B82A9
:10075000992311F481E08B838BDE6E837F838887FE
:1007600099872B812C831D826A877B878C879D8745
:10077000DF91CF911F910F91FF90EF900895991BFA
:1007800079E004C0991F961708F0961B881F7A9588
:10079000C9F780950895EE0FFF1F0590F491E02DA5
:0607A0000994F894FFCF5C
:00000001FF
