:100000000FC029C027C026C025C024C023C022C0DD
:1000100021C020C008C21EC01DC01CC01BC03500AE
:1000200011241FBECFE5D1E0DEBFCDBF10E0A0E6BA
:10003000B0E001C01D92A039B107E1F710E0C0E2C5
:10004000D0E003C02297FE01B4D3CE31D107D1F75F
:10005000D8D1B3C3D5CF1F920F920FB60F921124F0
:100060000F900FBE0F901F901895EF92FF920F9375
:100070001F9380E690E062E041E021E039E1E32E69
:10008000F12C012D112D13D31F910F91FF90EF90A3
:10009000089581E060E014D280E060E011D283E056
:1000A00060E00ED284E060E00BD281E060E0EED14F
:1000B00080E060E0EBD183E060E0E8D184E060E0E4
:1000C000E5D1089581E061E0E1D180E061E0DED139
:1000D00083E061E0DBD184E061E0D8D10895AF92A4
:1000E000BF92CF92DF92EF92FF920F931F93C0D1F6
:1000F0005B016C0160937B0070937C0080937D00BA
:1001000090937E00E091770080917F009091800035
:10011000A0918100B091820086017501E81AF90A68
:100120000A0B1B0B8E2F63E036D32DE730E002C0A5
:10013000220F331F9A95E2F740E050E0E216F306F3
:100140000407150708F4C4C0A0927F00B092800095
:10015000C0928100D09282008E2F1DD38230B9F1DF
:10016000833030F4882371F0813009F0A8C01AC0C0
:10017000843009F462C0843008F446C0853009F048
:100180009EC079C0809176008130D1F0813030F00E
:10019000823031F0833009F092C06AC081E060C0E3
:1001A00080E027C080917600813051F0813030F0BE
:1001B000823059F0833009F082C051C081E01EC006
:1001C00081E060E07DD180E078C080E052C0809125
:1001D0007600813069F0813030F0823071F0833008
:1001E00009F06DC00FC081E061E06AD180E059C0C4
:1001F00081E060E065D183E060C084E061E060D1CF
:1002000083E04FC080E02CC08091760090E09C019C
:100210002170307080FF05C02130310509F04FC0DA
:1002200006C081E061E04CD180E061E041C081E046
:1002300060E046D180E060E02FC08091760090E0E1
:100240009C012170307080FF04C021303105B9F568
:1002500009C081E061E034D180E060E031D183E029
:1002600061E01DC081E060E02BD180E061E028D139
:1002700083E060E020C08091760090E09C012170D6
:10028000307080FF04C021303105C9F40CC081E01A
:1002900061E016D180E061E013D183E060E010D12D
:1002A00084E060E00BC081E060E00AD180E060E0C3
:1002B00007D183E061E004D184E061E001D1809165
:1002C00076008F5F80937600843010F01092760075
:1002D0001F910F91FF90EF90DF90CF90BF90AF9064
:1002E00008958BB780648BBF85B78C7F85BF479A95
:1002F000379885B7877E806185BF85B7806285BF67
:10030000F89485B7846880937800982F9B7F9093AA
:10031000790085BF95BF78948895F8941BBE85B702
:100320008F7D85BF7894CEDE80E690E05AD180E65E
:1003300090E0FFD08823C1F39BD06093830070933B
:1003400084008093850090938600089580E690E075
:1003500048D180E690E0EDD0882349F08091770085
:100360008F5F80937700823110F01092770080E6E3
:1003700090E048EE53E060E070E0E5D0882359F06B
:1003800088DE03C080E690E02CD180E690E0D1D0FA
:100390008823C1F31EC080917B0090917C00A091C6
:1003A0007D00B0917E0020918300309184004091C7
:1003B000850050918600821B930BA40BB50B805EC9
:1003C0009349A440B04030F080917A00882311F026
:1003D00060DE87DF84DEBACF75DE80E690E001D193
:1003E00010927A00882339F481E080937A0003C068
:1003F00080E690E0F6D080E690E086D08823C1F7D2
:10040000089505D0E9DFA2DF80E090E008958AB585
:1004100082608ABD8CE789BD89B7806189BF789485
:1004200082E083BF08951F920F920FB60F9211249E
:100430008F939F93AF93BF93809187009091880093
:10044000A0918900B0918A000196A11DB11D8093F1
:10045000870090938800A0938900B0938A00BF9191
:10046000AF919F918F910F900FBE0F901F90189595
:100470008FB7F894209187003091880040918900CF
:1004800050918A008FBFB901CA010895382F6623A1
:1004900059F027B381E090E002C0880F991F3A9588
:1004A000E2F7282B27BB089527B381E090E002C034
:1004B000880F991F3A95E2F78095822387BB0895AC
:1004C000382F662359F028B381E090E002C0880FEE
:1004D000991F3A95E2F7282B28BB089528B381E0AD
:1004E00090E002C0880F991F3A95E2F78095822329
:1004F00088BB089526B330E002C0359527958A95CC
:10050000E2F7822F81700895FC018381811181E0DF
:10051000089520E0FC018381882309F421E0822FE3
:100520000895FC018381882319F08581811181E080
:100530000895FC018381882311F080E0089585816E
:10054000811181E00895EF92FF920F931F93FC01B8
:100550007A018B018381813011F060E015C060E089
:1005600086819781A085B185268537854089518907
:10057000821B930BA40BB50B8E159F05A007B1072B
:1005800008F461E081E06827862F1F910F91FF90AA
:10059000EF900895EF92FF920F931F93FC017A0161
:1005A0008B018381882311F060E015C060E08681B3
:1005B0009781A085B1852685378540895189821B21
:1005C000930BA40BB50B8E159F05A007B10708F47C
:1005D00061E081E06827862F1F910F91FF90EF90D7
:1005E0000895EF92FF920F931F93CF93DF93EC0147
:1005F0003FDF60938C0070938D0080938E0090930A
:100600008F00888177DF982F80938B008A818823E1
:1006100039F010928B00992319F481E080938B00BC
:10062000E0908C00F0908D0000918E0010918F0072
:100630002A893B894C895D898E859F85A889B989DE
:10064000280F391F4A1F5B1F8E819F81A885B9859E
:100650006B81E216F3060407150758F48A879B8717
:10066000AC87BD87EE82FF82088719871D82862F9F
:1006700017C08A879B87AC87BD876C8380918B006E
:100680008B83EE82FF8208871987861739F0EE8602
:10069000FF86088B198B81E08D8301C01D828B81C1
:1006A000DF91CF911F910F91FF90EF900895EF92FE
:1006B000FF920F931F93CF93DF93EC01862F6883F4
:1006C00049832A83EA8AFB8A0C8B1D8B60E0DEDE7D
:1006D0008981882319F0888161E0F2DE88810ADF50
:1006E000982F8B838A81882329F01B82992311F408
:1006F00081E08B83BDDE6E837F83888799872B8122
:100700002C831D826A877B878C879D876E877F8776
:10071000888B998BDF91CF911F910F91FF90EF9074
:100720000895EF92FF920F931F93CF93DF93EC0105
:10073000862F688349832A83EA8AFB8A0C8B1D8B68
:1007400060E0A4DE8981882319F0888161E0B8DE49
:100750008881D0DE982F8B838A81882329F01B82A1
:10076000992311F481E08B8383DE6E837F838887F6
:1007700099872B812C831D826A877B878C879D8735
:100780006E877F87888B998BDF91CF911F910F9117
:10079000FF90EF900895991B79E004C0991F961778
:1007A00008F0961B881F7A95C9F780950895EE0F7B
:0E07B000FF1F0590F491E02D0994F894FFCFFF
:00000001FF
