:1000000017C03CC03AC039C038C037C036C035C050
:1000100034C033C03CC331C041C02FC02EC0DAC091
:10002000F6C005C120C136C156C16EC18FC16B007B
:1000300011241FBECFE5D2E0DEBFCDBF10E0A0E6A9
:10004000B0E0E4E2FCE002C005900D92A436B107F6
:10005000D9F710E0A4E6B0E001C01D92AF39B107B6
:10006000E1F710E0C0E3D0E003C02297FE012BD5FA
:10007000CE32D107D1F7F9D2D3C5C2CF1F920F929A
:100080000FB60F9211248F9381E080937B001BBEEB
:100090008F910F900FBE0F901F9018951F920F9287
:1000A0000FB60F9211240F900FBE0F901F9018954E
:1000B000A895F89414BE81B5886181BD81E681BDA3
:1000C00078940895A895F89414BE81B5886181BD8F
:1000D00011BC78940895EF92FF920F931F9384E6DA
:1000E00090E062E041E021E039E1E32EF12C012DC6
:1000F000112D32D41F910F91FF90EF90089581E060
:1001000060E012D380E060E00FD383E060E00CD3C6
:1001100084E060E009D381E060E0ECD280E060E060
:10012000E9D283E060E0E6D284E060E0E3D20895C3
:1001300081E061E0DFD280E061E0DCD283E061E079
:10014000D9D284E061E0D6D20895AF92BF92CF9227
:10015000DF92EF92FF920F931F93A0907D00B090DB
:100160007E00C0907F00D0908000E0917700809169
:10017000810090918200A0918300B091840086015B
:100180007501E81AF90A0A0B1B0B8E2F63E050D495
:100190002DE730E002C0220F331F9A95E2F740E0CE
:1001A00050E0E216F3060407150708F4F8C0A09221
:1001B0008100B0928200C0928300D09284008E2F82
:1001C00037D4E82FF0E0E830F10508F0DFC0E15F58
:1001D000FF4F09948091760090E09C01217030706F
:1001E00080FF05C02130310509F0D0C008C080E093
:1001F00060E09AD283E060E097D281E0A3C081E022
:1002000060E092D284E060E08FD280E090C0809184
:1002100076008130B1F1813030F0823031F08330BE
:1002200009F0B4C06CC084E063C080E066C0809117
:10023000760090E09C012170307080FF05C0213075
:10024000310509F0A3C009C083E060E06DD284E00D
:1002500060E06AD281E061E016C081E060E064D2D3
:1002600080E060E029C080917600813051F08130DB
:1002700030F0823059F0833009F088C009C083E043
:1002800037C081E060E050D280E07EC080E038C0BE
:1002900084E033C08091760090E09C012170307042
:1002A00080FF05C02130310509F070C008C081E031
:1002B00061E03AD280E061E037D283E043C081E080
:1002C00060E032D280E060E02FD283E060E02CD2A8
:1002D00084E060E05AC080917600813069F081301E
:1002E00030F0823061F0833009F050C00BC080E004
:1002F00060E01AD281E048C081E060E019C083E08C
:1003000060E021C084E0BECF8091760090E09C0147
:100310002170307080FF04C021303105B9F50BC069
:1003200080E060E001D284E060E0FED181E061E045
:10033000FBD183E029C081E060E0F6D183E060E09A
:10034000F3D180E061E0F0D184E01EC060E070E0B5
:1003500080E090E024E030E040E050E009D260939B
:100360009500623018F06F5F6093950081E060E067
:10037000DBD180E060E0D8D183E060E0D5D184E0DB
:1003800060E0D2D18091950061E0CED1809176007D
:100390008F5F80937600843010F0109276001F916A
:1003A0000F91FF90EF90DF90CF90BF90AF900895A6
:1003B0009F92AF92BF92CF92DF92EF92FF920F93F4
:1003C0001F9350E8A52E5EE3B52EC12CD12C9924A5
:1003D000939440EEE42E43E9F42E44E0042F112DD3
:1003E0008BB780648BBF85B78C7F85BF479A379862
:1003F00085B7877E806185BF85B7806285BF809124
:100400007A00811155DEF89485B78468809378006E
:10041000982F9B7F9093790085BF95BF789488959E
:10042000F8941BBE85B78F7D85BF4CDE7894809194
:100430007B00882399F010927C00E0928900F09272
:100440008A0000938B0010938C0084E690E028D201
:1004500084E690E0C7D18823C1F32AC080917A0056
:10046000882309F454C080918D0090918E00A09152
:100470008F00B09190000196A11DB11D80938D0059
:1004800090938E00A0938F00B093900020919100E4
:1004900030919200409193005091940082179307FD
:1004A000A407B507A4F590927C0002C010927700D3
:1004B00080917C00882309F093CF3ADE10927B0074
:1004C0000BD1609385007093860080938700909392
:1004D000880080917A00882369F110928D00109233
:1004E0008E0010928F001092900069E470E080E01E
:1004F00090E02DED30E040E050E03AD16093910083
:1005000070939200809393009093940013C0109284
:100510007C00A0928900B0928A00C0928B00D09299
:100520008C00809177008F5F80937700883108F08E
:10053000BDCFBECF1F910F91FF90EF90DF90CF9076
:10054000BF90AF909F900895C7D060937D00709347
:100550007E0080937F009093800084E690E0A0D19D
:1005600084E690E03FD1882351F0809177008F5F3F
:10057000809377008831D0F11092770037C084E6FD
:1005800090E048EE53E060E070E036D1882359F007
:10059000B6DD03C084E690E083D184E690E022D10A
:1005A0008823C1F322C080917D0090917E00A091AC
:1005B0007F00B091800020918500309186004091AD
:1005C000870050918800821B930BA40BB50B2091E0
:1005D000890030918A0040918B0050918C008217E5
:1005E0009307A407B50710F08ADDE2DEAEDDACCFDD
:1005F000A89568DD9DDD84E690E052D110927A00E6
:10060000882339F081E080937A0003C084E690E08B
:1006100047D184E690E0D1D08823C1F780917A0059
:10062000882329F480EE93E9A4E0B0E004C080E8D8
:100630009EE3A0E0B0E08093890090938A00A093AD
:100640008B00B0938C0069E470E080E090E02DEDC9
:1006500030E040E050E08CD06093910070939200C5
:100660008093930090939400089505D0C1DF6CDFD0
:1006700080E090E008958AB582608ABD8CE789BDEC
:1006800089B7806189BF789482E083BF08951F9203
:100690000F920FB60F9211248F939F93AF93BF9336
:1006A0008091960090919700A0919800B091990048
:1006B0000196A11DB11D8093960090939700A09381
:1006C0009800B0939900BF91AF919F918F910F9037
:1006D0000FBE0F901F9018958FB7F8942091960039
:1006E0003091970040919800509199008FBFB901C7
:1006F000CA010895382F662359F027B381E090E0AE
:1007000002C0880F991F3A95E2F7282B27BB08955E
:1007100027B381E090E002C0880F991F3A95E2F775
:100720008095822387BB0895382F662359F028B31C
:1007300081E090E002C0880F991F3A95E2F7282BDC
:1007400028BB089528B381E090E002C0880F991F6C
:100750003A95E2F78095822388BB089526B330E06E
:1007600002C0359527958A95E2F7822F817008950A
:10077000AF92BF92CF92DF92EF92FF920F931F93AF
:100780005B016C0179018A01EED1EA18FB080C09C2
:100790001D09A801970158D19B01AC012A0D3B1DF1
:1007A0004C1D5D1DB901CA011F910F91FF90EF9083
:1007B000DF90CF90BF90AF900895FC0183818111AD
:1007C00081E0089520E0FC018381882309F421E081
:1007D000822F0895FC018381882319F0858181117E
:1007E00081E00895FC018381882311F080E0089561
:1007F0008581811181E00895EF92FF920F931F93FD
:10080000FC017A018B018381813011F060E015C019
:1008100060E086819781A085B185228533854485F6
:100820005585821B930BA40BB50B8E159F05A00756
:10083000B10708F461E081E06827862F1F910F91CE
:10084000FF90EF900895EF92FF920F931F93FC019A
:100850007A018B018381882311F060E015C060E08C
:1008600086819781A085B18522853385448555850C
:10087000821B930BA40BB50B8E159F05A007B10728
:1008800008F461E081E06827862F1F910F91FF90A7
:10089000EF900895FC0162857385848595850895A0
:1008A000EF92FF920F931F93CF93DF93EC0114DF2E
:1008B00060939B0070939C0080939D0090939E009A
:1008C00088814CDF982F80939A008A81882339F0A1
:1008D00010929A00992319F481E080939A00E09095
:1008E0009B00F0909C0000919D0010919E008A85D5
:1008F0009B85AC85BD85A8019701281B390B4A0B48
:100900005B0B8E859F85A889B9896B81281739076C
:100910004A075B0738F4EE82FF82088719871D8239
:10092000862F13C06C8380919A008B83EE82FF82A6
:1009300008871987861739F0EA86FB860C871D879A
:1009400081E08D8301C01D828B81DF91CF911F914A
:100950000F91FF90EF900895EF92FF920F931F93E6
:10096000CF93DF93EC01862F688349832A83EE8639
:10097000FF86088B198B60E0BDDE8981882319F022
:10098000888161E0D1DE8881E9DE982F8B838A81BE
:10099000882329F01B82992311F481E08B839CDE4C
:1009A0006E837F83888799872B812C831D826A873A
:1009B0007B878C879D87DF91CF911F910F91FF904F
:1009C000EF900895EF92FF920F931F93CF93DF93D1
:1009D000EC01862F688349832A83EE86FF86088B85
:1009E000198B60E087DE8981882319F0888161E0B6
:1009F0009BDE8881B3DE982F8B838A81882329F040
:100A00001B82992311F481E08B8366DE6E837F83E2
:100A1000888799872B812C831D826A877B878C87A7
:100A20009D87DF91CF911F910F91FF90EF900895D7
:100A3000991B79E004C0991F961708F0961B881F30
:100A40007A95C9F78095089597FB092E05260ED053
:100A500057FD04D014D00AD0001C38F450954095AE
:100A6000309521953F4F4F4F5F4F0895F6F7909582
:100A70008095709561957F4F8F4F9F4F0895A1E2AC
:100A80001A2EAA1BBB1BFD010DC0AA1FBB1FEE1F08
:100A9000FF1FA217B307E407F50720F0A21BB30B53
:100AA000E40BF50B661F771F881F991F1A9469F7CF
:100AB00060957095809590959B01AC01BD01CF012B
:100AC0000895EE0FFF1F0590F491E02D0994A0E02A
:100AD000B0E0ECE6F5E075C0EC01A880B980CA8012
:100AE000DB80A114B104C104D10441F484E2A82E36
:100AF00089EDB82E8BE5C82E87E0D82EC601B5014A
:100B00002DE133EF41E050E09FDF27EA31E440E0A0
:100B100050E036D07B018C01C601B5012DE133EFE9
:100B200041E050E091DFCA01B9012CEE34EF4FEF04
:100B30005FEF26D06E0D7F1D801F911F97FF04C0B1
:100B40006150704080409048688379838A839B839A
:100B50009B01AC015F77B901CA01CDB7DEB7EAE00E
:100B60004CC0B5DF089580E690E0B1DF0895609352
:100B70006000709361008093620090936300089519
:100B8000FF27EE27BB27AA2760FF04C0A20FB31FD1
:100B9000E41FF51F220F331F441F551F969587959D
:100BA0007795679589F70097760771F7CF01BD01B3
:100BB00008952F923F924F925F926F927F928F9201
:100BC0009F92AF92BF92CF92DF92EF92FF920F93DC
:100BD0001F93CF93DF93CDB7DEB7CA1BDB0B0FB6E6
:100BE000F894DEBF0FBECDBF09942A8839884888A3
:100BF0005F846E847D848C849B84AA84B984C88439
:100C0000DF80EE80FD800C811B81AA81B981CE0F2F
:100C1000D11D0FB6F894DEBF0FBECDBFED01089514
:040C2000F894FFCF76
:040C240001000000CB
:00000001FF
