:100000000FC034C032C031C030C02FC02EC02DC090
:100010002CC02BC0FCC129C028C027C026C040006E
:1000200011241FBECFE5D1E0DEBFCDBF10E0A0E6BA
:10003000B0E0E6EAF7E002C005900D92A236B10703
:10004000D9F710E0A2E6B0E001C01D92A239B107D5
:10005000E1F710E0C0E2D0E003C02297FE019DD39B
:10006000CE31D107D1F7C1D19CC3CACF1F920F9215
:100070000FB60F9211240F900FBE0F901F9018957E
:10008000EF92FF920F931F9382E690E062E041E0CF
:1000900021E039E1E32EF12C012D112DFCD21F912D
:1000A0000F91FF90EF90089581E060E0FDD180E036
:1000B00060E0FAD183E060E0F7D184E060E0F4D161
:1000C00081E060E0D7D180E060E0D4D183E060E0FF
:1000D000D1D184E060E0CED1089581E061E0CAD161
:1000E00080E061E0C7D183E061E0C4D184E061E0F9
:1000F000C1D10895F2DF0895AF92BF92CF92DF92FF
:10010000EF92FF920F931F93A7D15B016C01609355
:100110007D0070937E0080937F0090938000E0913B
:100120007C008091810090918200A0918300B09129
:10013000840086017501E81AF90A0A0B1B0B8E2F41
:1001400063E01DD32DE730E002C0220F331F9A95E4
:10015000E2F740E050E0E216F3060407150708F462
:10016000C4C0A0928100B0928200C0928300D0925D
:1001700084008E2F04D38230B9F1833030F4882389
:1001800071F0813009F0A8C01AC0843009F462C04F
:10019000843008F446C0853009F09EC079C0809153
:1001A00079008130D1F0813030F0823031F083300D
:1001B00009F092C06AC081E060C080E027C08091F1
:1001C0007900813051F0813030F0823059F0833045
:1001D00009F082C051C081E01EC081E060E064D1BE
:1001E00080E078C080E052C080917900813069F071
:1001F000813030F0823071F0833009F06DC00FC073
:1002000081E061E051D180E059C081E060E04CD1F3
:1002100083E060C084E061E047D183E04FC080E0CC
:100220002CC08091790090E09C012170307080FF9B
:1002300005C02130310509F04FC006C081E061E002
:1002400033D180E061E041C081E060E02DD180E009
:1002500060E02FC08091790090E09C0121703070A7
:1002600080FF04C021303105B9F509C081E061E0AB
:100270001BD180E060E018D183E061E01DC081E027
:1002800060E012D180E061E00FD183E060E020C047
:100290008091790090E09C012170307080FF04C053
:1002A00021303105C9F40CC081E061E0FDD080E06F
:1002B00061E0FAD083E060E0F7D084E060E00BC05A
:1002C00081E060E0F1D080E060E0EED083E061E0CA
:1002D000EBD084E061E0E8D0809179008F5F80937B
:1002E0007900843010F0109279001F910F91FF90E7
:1002F000EF90DF90CF90BF90AF9008958BB7806460
:100300008BBF85B78C7F85BF479A379885B7877E27
:10031000806185BF85B7806285BFF89485B78468A2
:1003200080937A00982F9B7F90937B0085BF95BF29
:1003300078948895F8941BBE85B78F7D85BF789497
:10034000CCDE82E690E041D182E690E0E6D08823E0
:10035000C1F382D0609385007093860080938700FC
:1003600090938800089582E690E02FD182E690E095
:10037000D4D0882349F080917C008F5F80937C00EB
:10038000823110F010927C0082E690E048EE53E05B
:1003900060E070E0CCD0882359F086DE03C082E6AE
:1003A00090E013D182E690E0B8D08823C1F31AC060
:1003B00080917D0090917E00A0917F00B09180009F
:1003C00020918500309186004091870050918800EF
:1003D000821B930BA40BB50B805E9349A440B040E5
:1003E00010F062DE8BDF88DEBECF05D076DEBBDFAD
:1003F00080E090E008958AB582608ABD8CE789BD6F
:1004000089B7806189BF789482E083BF08951F9285
:100410000F920FB60F9211248F939F93AF93BF93B8
:100420008091890090918A00A0918B00B0918C00FE
:100430000196A11DB11D8093890090938A00A0931D
:100440008B00B0938C00BF91AF919F918F910F90D3
:100450000FBE0F901F9018958FB7F89420918900C8
:1004600030918A0040918B0050918C008FBFB90170
:10047000CA010895382F662359F027B381E090E030
:1004800002C0880F991F3A95E2F7282B27BB0895E1
:1004900027B381E090E002C0880F991F3A95E2F7F8
:1004A0008095822387BB0895382F662359F028B39F
:1004B00081E090E002C0880F991F3A95E2F7282B5F
:1004C00028BB089528B381E090E002C0880F991FEF
:1004D0003A95E2F78095822388BB089526B330E0F1
:1004E00002C0359527958A95E2F7822F817008958D
:1004F000FC018381811181E0089520E0FC0183816A
:10050000882309F421E0822F0895FC018381882348
:1005100019F08581811181E00895FC018381882390
:1005200011F080E008958581811181E00895EF92B6
:10053000FF920F931F93FC017A018B01838181301D
:1005400011F060E015C060E086819781A085B185DB
:100550002685378540895189821B930BA40BB50BE7
:100560008E159F05A007B10708F461E081E06827B8
:10057000862F1F910F91FF90EF900895EF92FF92B9
:100580000F931F93FC017A018B018381882311F063
:1005900060E015C060E086819781A085B1852685E1
:1005A000378540895189821B930BA40BB50B8E159F
:1005B0009F05A007B10708F461E081E06827862F56
:1005C0001F910F91FF90EF900895EF92FF920F937C
:1005D0001F93CF93DF93EC013FDF60938E00709306
:1005E0008F008093900090939100888177DF982FFF
:1005F00080938D008A81882339F010928D00992391
:1006000019F481E080938D00E0908E00F0908F00CF
:1006100000919000109191002A893B894C895D8955
:100620008E859F85A889B989280F391F4A1F5B1FAE
:100630008E819F81A885B9856B81E216F306040738
:10064000150758F48A879B87AC87BD87EE82FF82A7
:10065000088719871D82862F17C08A879B87AC87DA
:10066000BD876C8380918D008B83EE82FF8208872B
:100670001987861739F0EE86FF86088B198B81E083
:100680008D8301C01D828B81DF91CF911F910F91CE
:10069000FF90EF900895EF92FF920F931F93CF93E7
:1006A000DF93EC01862F688349832A83EA8AFB8AD9
:1006B0000C8B1D8B60E0DEDE8981882319F0888138
:1006C00061E0F2DE88810ADF982F8B838A8188239C
:1006D00029F01B82992311F481E08B83BDDE6E83A8
:1006E0007F83888799872B812C831D826A877B87EC
:1006F0008C879D876E877F87888B998BDF91CF91C1
:100700001F910F91FF90EF900895EF92FF920F933A
:100710001F93CF93DF93EC01862F688349832A834D
:10072000EA8AFB8A0C8B1D8B60E0A4DE898188231A
:1007300019F0888161E0B8DE8881D0DE982F8B8344
:100740008A81882329F01B82992311F481E08B830D
:1007500083DE6E837F83888799872B812C831D821C
:100760006A877B878C879D876E877F87888B998B2D
:10077000DF91CF911F910F91FF90EF900895991BFA
:1007800079E004C0991F961708F0961B881F7A9588
:10079000C9F780950895EE0FFF1F0590F491E02DA5
:0607A0000994F894FFCF5C
:0207A600010050
:00000001FF
